:020000040800F2
:1000000048260020B50B00088D0900088F0900085C
:1000100093090008970900089B09000800000000E8
:100020000000000000000000000000009F09000820
:10003000A109000800000000B96500083D2B000878
:10004000CF0B0008CF0B0008CF0B0008CF0B000828
:10005000CF0B0008CF0B0008CF0B0008CF0B000818
:10006000CF0B0008CF0B0008CF0B0008CF0B000808
:10007000CF0B0008CF0B0008CF0B0008CF0B0008F8
:10008000CF0B0008CF0B0008CF0B0008CF0B0008E8
:10009000CF0B0008CF0B0008CF0B0008CF0B0008D8
:1000A000CF0B0008133A0008CF0B0008CF0B000855
:1000B000CF0B0008CF0B0008CF0B0008CF0B0008B8
:1000C000CF0B0008CF0B0008CF0B0008CF0B0008A8
:1000D000CF0B0008092D000851300008CF0B000895
:1000E000CF0B0008CF0B0008CF0B0008CF0B000888
:1000F000ED340008CF0B0008CF0B0008CF0B000831
:10010000CF0B0008CF0B0008CF0B0008CF0B000867
:10011000CF0B0008CF0B0008CF0B0008CF0B000857
:10012000CF0B0008CF0B0008CF0B0008CF0B000847
:10013000CF0B0008CF0B0008CF0B0008CF0B000837
:10014000CF0B0008CF0B0008CF0B0008CF0B000827
:10015000CF0B0008CF0B0008CF0B0008CF0B000817
:10016000CF0B0008CF0B0008CF0B0008CF0B000807
:10017000CF0B0008CF0B0008CF0B0008CF0B0008F7
:10018000CF0B0008CF0B000800F002F800F03CF89D
:100190000AA090E8000C82448344AAF10107DA45E2
:1001A00001D100F031F8AFF2090EBAE80F0013F0F8
:1001B000010F18BFFB1A43F0010318471C6B000026
:1001C0003C6B0000103A24BF78C878C1FAD85207B7
:1001D00024BF30C830C144BF04680C6070470000C1
:1001E0000023002400250026103A28BF78C1FBD840
:1001F000520728BF30C148BF0B6070471FB506F0DB
:1002000098FC1FBD10B510BD06F052FA1146FFF75D
:10021000F5FF00F070FB06F084FA03B4FFF7F2FF7D
:1002200003BC02F011FD000010B54FF4E13002F004
:1002300019FDA82002F08EFC4FF4164002F021FFB9
:1002400002F0ACFD02F030FEA72140F2E73003F0EF
:1002500095FAA72140F2E73002F0F8FF03F06EFABA
:1002600002F0D4FF02F040FE10BD2DED048B92B0E1
:100270000020109001200F9003200E90062009907E
:1002800022E1002011904FF47A7002F0B3FC11A922
:100290000AA802F08DFF9DF84400002807D09DF8C1
:1002A00044000D2804D0012110A802F05AFF06E1F5
:1002B0009DF82800ED287CD19DF829000728FAD167
:1002C0009DF82A005728F6D19DF82B002128F2D15D
:1002D0009DF833005728EED19DF834002028EAD14C
:1002E00001210FA802F03DFF9DF82C00072834D211
:1002F000DFE800F0D704346698C5CE009DF82E10D4
:100300009DF82D20FF2313FB021006F078FA41EC34
:10031000190B9FEDFB0B53EC102B06F09BFA41ECF5
:10032000180B06F03DFA07909DF82F0006F07EFAB4
:1003300041EC190B9FEDF20B53EC102B06F08AFAEF
:1003400041EC180B06F02CFA089007A9EE4800685B
:1003500005F076F8142002F04DFCA2E09DF82E1076
:100360009DF82D20FF2313FB021006F048FA41EC04
:10037000190B9FEDE30B53EC102B06F06BFA41ECDD
:10038000180B06F00DFA05909DF82F0006F04EFAB6
:1003900041EC190B9FEDDA0B53EC102B06F05AFAD7
:1003A00041EC180B06F0FCF9069005A9D748006847
:1003B00000E080E005F044F8142002F01BFC70E03F
:1003C0009DF831109DF83020FF2313FB021006F03A
:1003D00016FA41EC190B9FEDCE0B53EC102B06F0E7
:1003E00039FA41EC180B06F0DBF9041E01DB20465C
:1003F00000E0604203909DF8320006F017FA41ECED
:10040000190B9FEDC30B53EC102B06F023FA41ECB4
:10041000180B06F0C5F9049003A9BF48006805F061
:100420000FF83EE09DF831109DF83020FF2313FBBC
:10043000021006F0E4F941EC190B9FEDB50B53ECFB
:10044000102B06F007FA41EC180B06F0A9F9019001
:100450009DF8320006F0EAF941EC190B9FEDAC0B68
:1004600053EC102B06F0F6F941EC180B06F098F956
:10047000029001A9A948006804F0E2FF11E0002100
:10048000A74801F007FC0021A54801F0C3FB08E0E4
:100490000021A44801F0FEFB0021A24801F0BAFBB4
:1004A00000BF00BFA048006808B9012000E000209C
:1004B0009D49086003E001210EA802F052FE0020D1
:1004C0001190642002F096FBDBE686B097A30ECB7A
:1004D000CDE90223019133E005AA0021964B18686B
:1004E00004F0E6FE05784778867890F8038004AA41
:1004F0000021924B186804F094FC8346BBF800403E
:10050000FF2194FBF1F101F0FF09FF2194FBF1F2CF
:1005100001FB124101F0FF0A8DF808508DF80970B7
:100520008DF80A608DF80B808DF80C908DF80DA079
:100530000A2101A802F015FE4FF4FA6002F05AFBFE
:10054000CAE708B50FE002F07EFC0446C01704EBD2
:1005500090708010009069467848006804F01CFD97
:100560000A2002F047FBEEE72DED068B82B07FE01C
:10057000052002F00CFD0646042002F01EFD074691
:1005800000EE106AB8EE400ADFED6D0A20EE200A98
:1005900010EE101A084606F05BFA41EC1A0B9FEDBC
:1005A000690B53EC102B06F055F941EC190B06F0D2
:1005B000C5F808EE100A00EE107AB8EE400ADFED3A
:1005C000630A20EE200A10EE101A084606F040FAE0
:1005D00041EC1A0B9FED5B0B53EC102B06F03AF934
:1005E00041EC190B06F0AAF808EE900ABCEEC80A16
:1005F00010EE100AC4B2BCEEE80A10EE100AC5B242
:1006000000EE104AB8EE400A38EE400AB0EE408ADA
:1006100000EE105AB8EE400A38EEC00AF0EE408AFA
:100620009FED4B0A28EE000AB0EE408A9FED480A83
:1006300028EE800AF0EE408ABCEEC80A10EE100ADE
:1006400000F0FF08BCEEE80A10EE100A00F0FF0907
:100650008DF804408DF805808DF806508DF80790D0
:1006600001A93548006804F0EBFE0A2002F0C2FA46
:100670007EE702E00A2002F0BDFAFBE708B5012799
:10068000B8461CE06A4600212048006804F010FECD
:100690000446206845426668334642463946284645
:1006A00003F0FBF82048001D006808B9012000E0B5
:1006B00000201D49091D08600A2002F09BFAE1E7AD
:1006C0001CB50127B84606208DF804008DF80500FA
:1006D0008DF8060045E06A4600210B48006804F0EA
:1006E000E7FD044625686668334642463946284693
:1006F00003F0D3F80C48001D006858BB01202BE024
:10070000713D0AD723C3AB40280000202C000020F5
:10071000EC51B81E85DF97403000002034000020E7
:100720000000014000040140B0824042ED06572025
:100730000000000000000000240000202000002035
:1007400000003442B4D934E70C684A3F7836B241ED
:100750000000C842FFE70020714908600A2002F04B
:1007600049FAB8E708B50127B8461AE06A460021F9
:100770006C48006804F09CFD0446206845426668A9
:10078000334642463946284602F0F4FD6448006884
:1007900008B9012000E00020614908600A2002F049
:1007A00029FAE3E708B50127B8461DE06A460021AB
:1007B0005D48006804F07CFD0446256866682021D9
:1007C0005A4800F0BBFD334642463946284602F0FF
:1007D000D1FD5348006808B9012000E000205049CD
:1007E0000860642002F006FAE0E770B504460025D0
:1007F00000BF04214E4804F08DFC4E4908600221E0
:100800004D4804F087FC4D49086002214C4804F033
:1008100081FC4C49086002214B4804F07BFC4249B2
:1008200008600221494804F075FC3E490860002038
:1008300004F071FA46490860002004F06CFA45495A
:100840000860002004F043FF43490860002004F0E2
:100850003EFF42490860002004F039FF404908602B
:1008600003F05EFC05F080FE054609233D4A0021A9
:10087000AFF2CF0005F076F908233B4A0021AFF232
:100880001B1005F06FF90723384A0021AFF2CF1093
:1008900005F068F90623364A0021AFF21F2005F063
:1008A00061F90523334A0021AFF2392005F05AF9E6
:1008B0000423314A0021AFF24F3005F053F90323EE
:1008C0002E4A0021AFF2853005F04CF902232C4A64
:1008D0000021AFF2094005F045F90123294A002122
:1008E000AFF2796005F03EF90A2005F0BBFB28461F
:1008F00005F03EFE70BD10B54FF4A06000F07AF92F
:10090000FFF792FC03F0CFFA0A231F4A0021AFF24F
:10091000251005F027F903F0EBFB002010BD0000C7
:10092000B482404234000020300000200010024019
:10093000141400202400002038000020280000208B
:10094000400000202C000020480000205000002023
:10095000200000201C0000201000002014000020B7
:1009600018000020100400201006002010080020AD
:10097000100A0020100C0020100E00201010002083
:10098000101200201014002010020020704700BF39
:10099000FEE700BFFEE700BFFEE700BFFEE77047CF
:1009A000704700000CB50020019000907648006868
:1009B00040F480307449086000BF7348006800F458
:1009C000003000900198401C0190009818B90198DF
:1009D000B0F5A04FF1D16C48006800F4003010B1C0
:1009E0000120009001E0002000900098012846D1ED
:1009F00065484030006840F08050634940310860ED
:100A00006248006840F44040604908605E48083031
:100A100000685D49083108600846006840F40040FD
:100A200008600846006840F4A05008605848091F54
:100A30000860081F006840F08070091F086000BF50
:100A40005148006800F000700028F9D040F20570AD
:100A5000504908604C480830006820F003004A49BB
:100A6000083108600846006840F00200086000BFD6
:100A700045480830006800F00C000828F8D10CBD8B
:100A800010B54548006840F47000434908603E488E
:100A9000006840F001003C49086000203A490831F4
:100AA0000860394800683D490840374908603C48BB
:100AB000091D0860081F006820F48020091F0860D5
:100AC000002031490C310860FFF76CFF4FF00060E7
:100AD00031498039086010BD70B500200022022322
:100AE00000240221284D08352D6805F00C0020B1A6
:100AF000042806D0082834D107E02A4D2A4E356054
:100B000033E02A4D284E35602FE01F4D2D1D2D68F6
:100B1000C5F380541C4D2D1D2D6805F03F0154B1C7
:100B2000224DB5FBF1F5184E361D3668C6F3881612
:100B300005FB06F209E01B4DB5FBF1F5124E361D23
:100B40003668C6F3881605FB06F20F4D2D1D2D687D
:100B5000C5F301456D1C6B00B2FBF3F5124E356019
:100B600003E0104D104E356000BF00BF064D083544
:100B70002D68C5F303150E4E705D0B4D2D68C540F5
:100B8000094E356070BD0000003802400070004022
:100B900008544007003C024088ED00E0FFFFF6FEED
:100BA000103000240024F4005800002000127A00C5
:100BB0005C0000200948804709480047FEE7FEE73F
:100BC000FEE7FEE7FEE7FEE7FEE7FEE7FEE7FEE7FD
:100BD00004480549054A064B70470000810A000891
:100BE00089010008482000204826002048220020D3
:100BF0004822002032490143324A1160704770B5E3
:100C0000002100230F22C4781CB32E4C246804F466
:100C1000E064C4F5E064C4F30721C1F10404E3B265
:100C20000A4144789C40E1B28478144021430C0787
:100C3000210E254C05786155047804F01F05012428
:100C4000AC4005786D11AD0005F1E025C5F8004117
:100C500009E0047804F01F050124AC401B4D067820
:100C6000761145F8264070BD194A0A400243154BDB
:100C70001B1F1A60704739B1124A121D12680243D5
:100C8000104B1B1D1A6006E00E4A121D12688243AB
:100C90000C4B1B1D1A607047042808D14FF0E0214F
:100CA000096941F004014FF0E022116107E04FF0C3
:100CB000E021096921F004014FF0E0221161704741
:100CC0000000FA050CED00E000E400E080E100E047
:100CD00080FFFF1F10B50121080200F000FE002177
:100CE0004FF4807000F0FBFD10BD30B502460020CF
:100CF00000235068F84C20400D790C6844EA052424
:100D0000204350609068F54C2040D1E903542C43B7
:100D10008D682C434D7944EA450420439060D06AA5
:100D200020F470000C7D641EE4B2234340EA0350BB
:100D3000D06230BD00210160017141718160C160EC
:100D400001610121017570470021E54A1168E54AFA
:100D50001140D0E900231A4383681A43C3681A4339
:100D60001143E14AC2F80413704700210160416059
:100D70008160C160704721B1826842F001028260E7
:100D800003E0826822F00102826070470A46002177
:100D90004168D64B194011434160704741628262FD
:100DA00070470A460021416821F01F01114341604C
:100DB000704738B1CA49096841F40001CA4AC2F80B
:100DC000041306E0C649096821F40001C64AC2F8C6
:100DD0000413704738B1C249096841F48001C24A1E
:100DE000C2F8041306E0BE49096821F48001BE4A36
:100DF000C2F804137047F0B504460D4600200021E8
:100E0000092D11DDE068A5F10A0606EB4607072665
:100E100006FA07F18843A5F10A0606EB460603FA2F
:100E200006F10843E0600CE0206905EB4507072662
:100E300006FA07F1884305EB450603FA06F1084375
:100E40002061072A0FDA606B561E06EB86071F2605
:100E500006FA07F18843561E06EB860605FA06F1E8
:100E60000843606322E00D2A0FDA206BD61F06EBE1
:100E700086071F2606FA07F18843D61F06EB86066B
:100E800005FA06F10843206310E0E06AA2F10D06BE
:100E900006EB86071F2606FA07F18843A2F10D0626
:100EA00006EB860605FA06F10843E062F0BD8168AC
:100EB00041F0804181607047014600208A6802F05D
:100EC00080420AB1012000E00020704721B1826811
:100ED00042F48062826003E0826822F48062826071
:100EE000704721B1826842F00202826003E08268AA
:100EF00022F002028260704710B50A4600210023EA
:100F0000416821F46041531E41EA4331416010BD04
:100F100021B1426842F40062426003E0426822F478
:100F20000062426070470146C86C80B270476C48EE
:100F3000001D0068704721B1826842F480728260AF
:100F400003E0826822F480728260704721B1826877
:100F500042F40072826003E0826822F400728260D0
:100F6000704738B15E49096841F400515E4AC2F8E1
:100F7000041306E05A49096821F400515A4AC2F89C
:100F800004137047F0B504461546002000220026E1
:100F9000092911DDE068A1F10A0707EB470C0727D3
:100FA00007FA0CF29043A1F10A0707EB470703FA8F
:100FB00007F21043E0600CE0206901EB410C0727C9
:100FC00007FA0CF2904301EB410703FA07F21043D2
:100FD0002061A06BC0F30156EF1C06F1010CA7EBDA
:100FE0000C0707EB870C1F2707FA0CF29043EF1C46
:100FF00006F1010CA7EB0C0707EB870701FA07F2D4
:101000001043A063F0BD10B50A4600210023816B98
:1010100021F44011531E41EA0351816310BD08B50C
:10102000002300930090009B0B440093009B1A60E8
:1010300008BD0A460021816821F4702111438160B6
:1010400070470A460021816821F4401111438160F4
:101050007047816841F4800181607047014600203B
:101060008A6802F480020AB1012000E00020704783
:1010700021B1426842F48062426003E0426822F497
:1010800080624260704721B1426842F480524260FF
:1010900003E0426822F480524260704708B502467D
:1010A00000200090009201F12800009B184400905D
:1010B0000098006880B208BD10B50B460021D9B277
:1010C000012404FA01F11AB144680C43446002E0BF
:1010D00044688C43446010BDFFFEFFFCFDF7FFC079
:1010E00004230140E030FCFF00200140FFFD3FFFF2
:1010F0000246002013680B400BB1012000E00020E5
:101100007047CA430260704770B502460020002352
:1011100000240B12556801268E4005EA0604156866
:101120001D4015B10CB1012000E0002070BD00226F
:101130000A12D3430360704710B5044698488442AE
:1011400008D10121084600F086FB0021012000F0B3
:1011500082FB76E09348844208D10121022000F00E
:101160007AFB0021022000F076FB6AE08E48844280
:1011700008D10121042000F06EFB0021042000F0C2
:101180006AFB5EE08948844208D10121082000F012
:1011900062FB0021082000F05EFB52E0844884429C
:1011A00008D10121102000F056FB0021102000F092
:1011B00052FB46E07F48844208D10121202000F004
:1011C0004AFB0021202000F046FB3AE07A488442A6
:1011D00008D10121402000F03EFB0021402000F01A
:1011E0003AFB2EE07548844208D10121802000F0AE
:1011F00032FB0021802000F02EFB22E07048844268
:1012000008D10121801500F026FB0021A01500F077
:1012100022FB16E06B48844208D10121401500F002
:101220001AFB0021601500F016FB0AE066488442B4
:1012300007D10121001500F00EFB0021201500F060
:101240000AFB10BDF0B50A4600210023002400BFB0
:101250003DE0012505FA01F3156805EA03049C4207
:1012600034D105684F000326BE40B54305601579AB
:101270004E00B5400668354305601579012D02D052
:101280001579022D16D185684F000326BE40B5435F
:10129000856055794E00B540866835438560456860
:1012A00001268E40B5434560456896798E40B6B2BA
:1012B00035434560C5684F000326BE40B543C56051
:1012C000D5794E00B540C6683543C560491C102924
:1012D000BFD3F0BD4FF6FF71016000210171417174
:1012E0008171C171704708B54FF480320092009A45
:1012F0000A430092009AC261C161009AC261C26948
:101300000092C269009208BD0246002013690B409A
:101310000BB1012000E0002070470146086980B24F
:1013200070470246002053690B400BB1012000E0DA
:10133000002070470146486980B2704701837047BA
:10134000418370470AB1018300E0418370474161E6
:10135000704742694A4042617047F0B5002300245B
:101360004D07ED0E02FA05F3CE1000F1200555F8F9
:1013700026504E07F70E0F26BE40B543CF1000F1A2
:10138000200646F82750CE1000F1200555F82650CB
:1013900045EA0304CE1000F1200545F82640F0BDD3
:1013A000000002400004024000080240000C02401D
:1013B000001002400014024000180240001C0240CD
:1013C000002002400024024000280240F948006842
:1013D00040F00100F74908600020F6490831086034
:1013E000F4480068F4490840F2490860F348091DD0
:1013F0000860F348EF4984310860F0481038091D4F
:101400000860EC48006820F48020EA490860002069
:10141000E8490C310860E7498C31086070470021C9
:10142000E44A921C117011460870704710B50146CD
:101430000022002300204A11012A02D1DD4C23683A
:1014400008E0022A03D1DB4C7034236802E0D94C57
:101450007434236801F01F02012494401C400CB135
:10146000012000E0002010BD38B5002000900024CD
:10147000002500BF3120FFF7D9FF05460098401C2A
:1014800000900098B0F5A04F01D0002DF2D031208F
:10149000FFF7CCFF08B1012400E00024204638BD4E
:1014A00001460020C34A106820F0F80040EAC1005D
:1014B00010607047C349086070470021BD4A703210
:1014C00011701170012802D004280AD104E0012112
:1014D000B84A7032117005E00521B64A70321170B9
:1014E00000E000BF00BF7047B7490860704770B5A3
:1014F000049C41EA82150126C6EB530645EA0645DF
:10150000054345EA0465AB4E361D356070BDAD49F7
:1015100008667047820142EA0172A64B84331A6062
:101520007047A8498866704710B5830143EA016394
:1015300043EA02739F4C8834236010BDA1490867B9
:101540007047A049C864704702460020994B083391
:10155000186820F0EC6042EA01031843954B083309
:101560001860704702460020924B0833186820F03C
:10157000784042EA010318438E4B083318607047E5
:10158000014600208B4A0832106820F0030008430F
:101590001060704787480830006800F00C00704702
:1015A00001460020834A0832106820F0F00008430A
:1015B00010607047014600207E4A0832106820F40F
:1015C000E05008431060704701460020794A083215
:1015D000106820F4604040EAC10010607047F0B528
:1015E000002100220024022500260223714F083723
:1015F0003F6807F00C0121B1042905D0082937D133
:1016000005E0724F076036E0714F076033E0694FC5
:101610003F1D3F68C7F38056664F3F1D3F6807F088
:101620003F036EB16A4FB7FBF3F7DFF888C10CF1E7
:10163000040CDCF800C0CCF3881C07FB0CF40CE0B5
:10164000624FB7FBF3F7DFF86CC10CF1040CDCF868
:1016500000C0CCF3881C07FB0CF4564F3F1D3F68BD
:10166000C7F301477F1C7D00B4FBF5F7076002E07C
:10167000564F076000BF00BF4E4F08373F6807F066
:10168000F0010909534F7A5C0768D7404760494F1A
:1016900008373F6807F4E051890A4E4F7A5C476883
:1016A000D7408760434F08373F6807F46041490BD4
:1016B000484F7A5C4768D740C760F0BD002100F40E
:1016C0004072B2F5407F0AD13A4A0832116821F4DB
:1016D000F811414A02401143364A08321160354A36
:1016E00070321268C0F30B031A43324B70331A6026
:1016F00070473549443908607047334940390860BC
:10170000704736490860704701460020294A8C32EC
:10171000106820F01F004A1E1043264A8C321060C9
:10172000704701460020234A8C32106820F4F8509C
:101730004A1E40EA02201F4A8C3210607047014660
:1017400000201C4A8C32106820F4401008431060BE
:10175000704701460020174A8C32106820F4400080
:1017600008431060704701460020124A8C3210680E
:1017700020F44030084310607047194908607047F2
:1017800039B10C4A3032126802430A4B30331A60C6
:1017900006E0084A303212688243064B30331A6042
:1017A0007047F9B1034A343212680243014B3433B3
:1017B0001A601CE000380240FFFFF6EA10300024F7
:1017C0000030002000004742800E47420024F40011
:1017D00000127A006C000020FFFCFF0F5C01474202
:1017E000E01147428F4A126882438E4B1A6070475D
:1017F00039B18C4A121D126802438A4B1B1D1A60B4
:1018000006E0884A121D12688243864B1B1D1A602F
:10181000704739B1834A0C3212680243814B0C3352
:101820001A6006E07F4A0C32126882437D4B0C330B
:101830001A60704739B17B4A103212680243794B03
:1018400010331A6006E0774A103212688243754BF3
:1018500010331A60704739B1724A243A1268024351
:10186000704B243B1A6006E06E4A243A12688243A9
:101870006C4B243B1A60704739B16A4A203A1268AF
:101880000243684B203B1A6006E0664A203A126821
:101890008243644B203B1A60704739B1614A1C3A5D
:1018A000126802435F4B1C3B1A6006E05D4A1C3A1B
:1018B000126882435B4B1C3B1A60704739B1594A2E
:1018C000143A12680243574B143B1A6006E0554A1B
:1018D000143A12688243534B143B1A60704739B173
:1018E000504A103A126802434E4B103B1A6006E011
:1018F0004C4A103A126882434A4B103B1A607047B8
:1019000039B1484A1C3212680243464B1C331A60F4
:1019100006E0444A1C3212688243424B1C331A6070
:10192000704739B13F4A2032126802433D4B2033A1
:101930001A6006E03B4A203212688243394B20335A
:101940001A60704739B1374A243212680243354B66
:1019500024331A6006E0334A243212688243314B42
:1019600024331A60704739B12E4A2C321268024370
:101970002C4B2C331A6006E02A4A2C321268824320
:10198000284B2C331A60704739B1264A303212681E
:101990000243244B30331A6006E0224A3032126888
:1019A0008243204B30331A607047012808D11D490B
:1019B0003C31096841F008011A4A3C32116007E0E5
:1019C00018493C31096821F00801164A3C3211607F
:1019D000704739B1134A273A12780243114B273B1B
:1019E0001A7006E00F4A273A127882430D4B273BC4
:1019F0001A7070470B484030006840F08070094909
:101A000040310860704701460020064A283A1268B3
:101A10000A400AB1012000E0002070470149263940
:101A2000087070473438024010B50446FE488442BE
:101A300008D101210846FFF752FF00210120FFF7DE
:101A40004EFF9DE0B4F1804F08D101210846FFF719
:101A500035FF00210120FFF731FF91E0F348844278
:101A600008D101210220FFF729FF00210220FFF702
:101A700025FF85E0EE48844208D101210420FFF7CC
:101A80001DFF00210420FFF719FF79E0E948844297
:101A900008D101210820FFF711FF00210820FFF7DE
:101AA0000DFF6DE0E448844208D101211020FFF7CA
:101AB00005FF00211020FFF701FF61E0DF488442AD
:101AC00008D101212020FFF7F9FE00212020FFF797
:101AD000F5FE55E0DA48844208D101210220FFF7E3
:101AE000FEFE00210220FFF7FAFE49E0D5488442BD
:101AF00009D101210804FFF7F2FE00214FF48030E4
:101B0000FFF7EDFE3CE0D048844209D101214804B2
:101B1000FFF7E5FE00214FF40030FFF7E0FE2FE075
:101B2000CA48844209D101218804FFF7D8FE002168
:101B30004FF48020FFF7D3FE22E0C548844208D14D
:101B400001214020FFF7BAFE00214020FFF7B6FE3A
:101B500016E0C048844208D101218020FFF7AEFE84
:101B600000218020FFF7AAFE0AE0BB48844207D18B
:101B700001218015FFF7A2FE0021A015FFF79EFEB0
:101B800010BD00220288A84B98420ED0AC4B984260
:101B90000BD0B0F1804F08D0A44B984205D0A44B95
:101BA000984202D0A34B984204D14FF68F731A404B
:101BB0004B881A43A04B984207D0A04B984204D0C0
:101BC0004FF6FF431A400B891A4302804B68C362E9
:101BD0000B880385944B984202D0994B984201D1CF
:101BE0008B7A03860123838270474FF0FF31416077
:101BF00000210180018141808172704701858282CC
:101C000070470A46002101884FF68F73194011432F
:101C10000180704741627047C16270470146486A5F
:101C200070470146088D704721B1028842F00202D8
:101C3000028004E002884FF6FD731A40028070476C
:101C400021B1028842F00402028004E002884FF6CB
:101C5000FB731A400280704721B1028842F0800273
:101C6000028004E002884FF67F731A4002807047BA
:101C700002884FF6F7731A40028002880A430280F6
:101C8000704702884FF6FF431A40028002880A43D9
:101C90000280704721B1028842F00102028004E014
:101CA00002884FF6FE731A400280704770B5002418
:101CB00000220023058C4FF6FE7635400584028C09
:101CC0008388048B4FF68F752C40B51E2C400D88F1
:101CD0002C43751E2A408D892A434D882A43524D34
:101CE000A84202D0564DA84213D14FF6F7752A40AC
:101CF000CD892A434FF6FB752A408D882A434FF63B
:101D0000FF652B404FF6FF552B400D8A2B434D8A24
:101D10002B43838004838D684563028470BD70B556
:101D2000002400220023058C4FF6EF763540058411
:101D3000028C8388048B48F6FF752C404FF6FF45D4
:101D40002C400D884FF6FF7606EA05252C434FF60A
:101D5000DF752A408D8906EA05152A434D8806EA73
:101D600005152A43304DA84202D0354DA8421DD159
:101D70004FF67F752A40CD894FF6FF7606EA0515A6
:101D80002A434FF6BF752A408D8806EA05152A4377
:101D90004FF6FF352B404FF2FF752B400D8A06EAB8
:101DA00085052B434D8A06EA85052B4383800483F2
:101DB0008D688563028470BD70B500240022002305
:101DC000058C4FF6FF6635400584028C8388848B32
:101DD0004FF68F752C404FF6FC752C400D882C4328
:101DE0004FF6FF552A408D894FF6FF7606EA052506
:101DF0002A434D8806EA05252A430B4DA84202D006
:101E00000F4DA84238D14FF2FF752A40CD894FF6C9
:101E1000FF7606EA05252A434FF6FF352A408D88CE
:101E200006EA05252A4319E00000014000040040AD
:101E300000080040000C004000100040001400406A
:101E400000040140004001400044014000480140BE
:101E500000180040001C0040002000404EF6FF75B6
:101E60002B404DF6FF752B400D8A06EA05152B43D6
:101E70004D8A06EA05152B43838084838D68C563EC
:101E8000028470BD70B5002200230024058C4EF63C
:101E9000FF7635400584038C8488828B48F6FF7575
:101EA0002A404FF6FF452A400D884FF6FF7606EA96
:101EB00005252A434DF6FF752B408D8906EA053529
:101EC0002B434D8806EA05352B43FE4DA84202D030
:101ED000FD4DA84208D14BF6FF752C400D8A4FF6F8
:101EE000FF7606EA85152C43848082838D6805641D
:101EF000038470BD002101804180818081608181E7
:101F0000C18101824182704770B5034600200024E0
:101F10001846183001258D40ACB21D8CA5431D8498
:101F200009B108290AD100EB610005684FF68F76E8
:101F3000354005600568154305600FE00D1FC5F3CA
:101F40004E052844056848F6FF763540056005686B
:101F50004FF6FF7606EA02263543056070BD416301
:101F6000704781637047C1637047016470470A46D8
:101F70000021018B4FF68F73194011430183704785
:101F80000A460021018B48F6FF7319404FF6FF7394
:101F900003EA02231943018370470A460021818B1B
:101FA0004FF68F7319401143818370470A46002111
:101FB000818B48F6FF7319404FF6FF7303EA022343
:101FC0001943818370470A460021018B4FF6F7734E
:101FD00019401143018370470A460021018B4FF2DB
:101FE000FF7319404FF6FF7303EA0223194301837D
:101FF00070470A460021818B4FF6F7731940114351
:10200000818370470A460021818B4FF2FF7319408C
:102010004FF6FF7303EA02231943818370470A4690
:102020000021018B4FF6FB73194011430183704768
:102030000A460021018B4FF6FF3319404FF6FF731C
:1020400003EA02231943018370470A460021818B6A
:102050004FF6FB7319401143818370470A460021F4
:10206000818B4FF6FF3319404FF6FF7303EA0223CB
:102070001943818370470A460021018B4FF67F7315
:1020800019401143018370470A460021018BC1F3B7
:102090000E014FF6FF7303EA0223194301837047D1
:1020A0000A460021818B4FF67F73194011438183CB
:1020B00070470A460021818BC1F30E014FF6FF7372
:1020C00003EA02231943818370470A460021018CE9
:1020D0004FF6FD7319401143018470470A460021F1
:1020E000018C4FF6F77319401143018470470A467B
:1020F0000021018C4FF6DF7319404FF6FF7303EA9E
:1021000002131943018470470A460021018C4FF6DF
:102110007F7319404FF6FF7303EA021319430184DA
:1021200070470A460021018C4FF6FF5319404FF6C5
:10213000FF7303EA02231943018470470A46002112
:10214000018C4FF2FF7319404FF6FF7303EA02232D
:102150001943018470470A460021018C4DF6FF7334
:1021600019404FF6FF7303EA0233194301847047A5
:1021700030B5002301248C40A3B2048C9C4304841A
:10218000048C02FA01F5ADB22C43048430BD30B5A5
:10219000002304248C40A3B2048C9C430484048C4C
:1021A00002FA01F5ADB22C43048430BD828B4FF2AC
:1021B000FF331A408283828B4FF6FF7303EA0123B9
:1021C0001A4382837047F0B50C4615460021002261
:1021D0000026078C4EF6FF7C07EA0C070784818BEC
:1021E000028C4FF6FF7707EA043640F6FF47394086
:1021F0004FF6FF7707EA052739434FF6FF7707EADF
:102200000337394345F6FF773A4046F480573A435F
:1022100081830284F0BD828B4FF6F3731A40828370
:10222000828B0A4382837047F0B50C461546002125
:1022300000220026078C4FF6FF6C07EA0C07078484
:10224000818B028C4FF6FF7707EA04264FF60C7756
:1022500039404FF6FF7707EA03172F4339434FF210
:10226000FF573A4046F480773A4381830284F0BDB9
:10227000028B4FF2FF331A400283028B4FF6FF733B
:1022800003EA01231A4302837047F0B50C46154652
:10229000002100220026078C4FF6EF7C07EA0C078E
:1022A0000784018B028C4FF6FF7707EA041640F68D
:1022B000FF4739404FF6FF7707EA033739434FF6B8
:1022C000FF7703E0000001400004014007EA052712
:1022D00039434FF65F773A4046F010073A4301839F
:1022E0000284F0BD028B4FF6F3731A400283028B17
:1022F0000A4302837047F0B50C46154600210022C0
:10230000068C4FF6FE773E400684018B028C4FF61A
:102310000C7631407E1C06EA03162E4331434FF6FD
:10232000F576324044F00106324301830284F0BD69
:1023300070B505460C46208850B92389A28861886B
:102340002846FFF7D8FFE1882846FFF7CBFF25E0B6
:10235000208804280AD12389A28861882846FFF7AB
:1023600094FFE1882846FFF783FF17E020880828BC
:102370000AD12389A28861882846FFF755FFE188A2
:102380002846FFF748FF09E02389A288618828468C
:10239000FFF719FFE1882846FFF708FF70BD00210D
:1023A00001804180012181800021C180018170472D
:1023B0002DE9F04105460C4600260127608808B942
:1023C000022600E00026A088012801D1022700E0B3
:1023D00001272088A0B92389A28861882846FFF7B1
:1023E0008AFFE1882846FFF77DFF23893A46314678
:1023F0002846FFF74AFFE1882846FFF739FF13E038
:102400002389A28861882846FFF73FFFE188284694
:10241000FFF72EFF23893A4631462846FFF76BFF28
:10242000E1882846FFF75EFFBDE8F0810146486B72
:1024300070470146886B70470146C86B704701467C
:10244000086C70470A884B881A438B881A43CB88DC
:102450001A430B891A434B891A438B891A43A0F8F4
:10246000442070470021018041808180C18001812A
:1024700041818181704731B1B0F8442042F400427B
:10248000A0F8442005E0B0F84420C2F30E02A0F802
:102490004420704721B1828842F00402828004E027
:1024A00082884FF6FB731A408280704721B1828880
:1024B00042F00102828004E082884FF6FE731A40E7
:1024C000828070471AB183890B43838102E083893C
:1024D0008B43838170478182704702460020138AB4
:1024E0000B400BB1012000E000207047CA4302827C
:1024F000704730B50246002000230024158A05EA03
:102500000103958905EA010413B10CB1012000E033
:10251000002030BDCA430282704741EA0203A0F89E
:10252000483070471AB183890B43838102E0838965
:102530008B438381704721B1828842F008028280F8
:1025400004E082884FF6F7731A4082807047018951
:102550004FF6F8721140018170470A460021018947
:102560004FF68F73194011430181704730B504460F
:102570000D4629462046FFF7F0FF208940F007006E
:10258000208130BD2DE9F04104460D4616461F4618
:10259000602D06D13B46012231462046FFF775FEED
:1025A00005E03B46012231462046FFF7A4FE2946BE
:1025B0002046FFF7D2FF208940F007002081BDE8C8
:1025C000F08130B50C4600210189C9B24FF6FF7584
:1025D00005EA0325154325432943018130BD2DE933
:1025E000F04105460E4617469846002443463A46B3
:1025F00031462846FFF7E5FF2C894FF6F870044076
:1026000044F007044FF68F70044044F070042C81AE
:10261000BDE8F081F0B504460D4616461F463B4620
:10262000324629462046FFF7CCFF208940F48040FF
:102630002081F0BD82884FF68F731A408280828895
:102640000A438280704702894FF6F8731A4002816C
:1026500002890A430281704702894FF67F731A404C
:10266000028102890A4302817047F0B50C46154683
:102670001E460021002200230189028B038C4FF6A5
:10268000F877394021434FF6FC473A4040F20117B2
:102690003A434FF6DD773B404FF6FF7707EA0617E0
:1026A0002F433B43018102830384F0BD21B1828823
:1026B00042F08002828004E082884FF67F731A40E5
:1026C00082807047A0F850107047000010B5044693
:1026D000FA48844208D101211020FFF700F90021B7
:1026E0001020FFF7FCF857E0F548844209D101219A
:1026F0004804FFF7E3F800214FF40030FFF7DEF85D
:102700004AE0F048844209D101218804FFF7D6F855
:1027100000214FF48020FFF7D1F83DE0EA488442E1
:1027200009D10121C804FFF7C9F800214FF40020A6
:10273000FFF7C4F830E0E548844209D101210805DB
:10274000FFF7BCF800214FF48010FFF7B7F823E043
:10275000DF48844208D101212020FFF7C0F8002182
:102760002020FFF7BCF817E0DA48844209D10121A4
:102770008807FFF7A3F800214FF08040FFF79EF88D
:102780000AE0D548844207D101214005FFF796F8B9
:1027900000216005FFF792F810BD2DE9FF470546BF
:1027A0000E460024A14600BFA046B08900B100BF7C
:1027B0002C8A24F44054F08804432C82AC8941F2E2
:1027C0000C608443B088318908437189084304430D
:1027D000AC81AC8A24F44074B0890443AC8268466E
:1027E000FEF7FDFEB548854202D0B948854202D1C8
:1027F000DDF80C9001E0DDF80890A88900F40040B5
:1028000040B109EBC90000EB091031684900B0FB89
:10281000F1F707E009EBC90000EB09103168890006
:10282000B0FBF1F76420B7FBF0F00401200964214C
:1028300001FB1078A88900F4004040B1322000EB81
:10284000C800B0FBF1F000F00700044308E03220BC
:1028500000EB08106421B0FBF1F000F00F0004431E
:102860002C81BDE8FF874FF4165101600021818063
:10287000C18001810C21418100218181704710B507
:1028800002460020108A20F470600B884C88234395
:102890008C882343CC8823431843108210BD002129
:1028A000018041808180C180704721B1828942F4DA
:1028B0000052828104E082894DF6FF731A408281C2
:1028C0007047028B02F47F420283028B0A43028329
:1028D000704721B1828942F40042828103E08289FB
:1028E000C2F30E028281704721B1828A42F40062F3
:1028F000828204E0828A4FF2FF731A40828270471C
:10290000C1F308028280704701468888C0F308003E
:102910007047028A4FF6F0731A400282028A0A4315
:102920000282704721B1828942F00202828104E072
:1029300082894FF6FD731A408281704782894FF277
:10294000FF731A40828182890A4382817047028A1A
:102950004FF6DF731A400282028A0A4302827047EE
:1029600021B1028A42F48042028204E0028A4BF6DC
:10297000FF731A4002827047818941F00101818111
:10298000704721B1828A42F00802828204E0828A82
:102990004FF6F7731A4082827047028BD2B20283DD
:1029A000028B42EA01220283704721B1828A42F0FF
:1029B0002002828204E0828A4FF6DF731A4082820C
:1029C000704721B1828A42F01002828204E0828A3A
:1029D0004FF6EF731A4082827047828A4FF6FB737C
:1029E0001A408282828A0A438282704721B1828A97
:1029F00042F00202828204E0828A4FF6FD731A409E
:102A0000828270471AB1838A0B43838202E0838AF1
:102A10008B4383827047F0B50346002400260025CF
:102A2000002040F66A17B94200D100BF1846C1F332
:102A3000421401F01F06012707FA06F5012C01D107
:102A40000C3004E0022C01D1103000E014301AB137
:102A500007682F43076002E00768AF430760F0BDD7
:102A600002460020B1F5007F00D100BF13880B4063
:102A70000BB1012000E00020704701F40072B2F5B4
:102A8000007F00D100BFCA430280704770B5024684
:102A9000002400230025002040F66A16B14200D130
:102AA00000BFC1F3421501F01F03012606FA03F32C
:102AB000012D13D19689334017E00000001001402A
:102AC0000044004000480040004C004000500040DE
:102AD0000014014000780040007C0040022D02D12B
:102AE000168A334001E0968A33400C12012606FA1A
:102AF00004F41688344013B10CB1012000E000202A
:102B000070BD10B50022002340F66A14A14200D126
:102B100000BF0A1201249440A3B2DC43048010BD1C
:102B200010B501F029FA10BD10B501F06AFA10BD18
:102B300010B50446204603F05DFB10BD10B53E48BD
:102B40000078012805D101F0C4F901F008FB01F07B
:102B5000DBF910BD70B504466FF00400FEF79CF879
:102B6000E11704EB5171C1F3C701344A1170E11749
:102B700004EB5171CD1041F28830454305203049B6
:102B800008804FF0E020006940F002004FF0E021A3
:102B9000086108464561006940F00100086170BDA8
:102BA0002DE9F047074600264FF0E020D0F81490BA
:102BB0002248007807FB00F8FFF7B2FF4FF0E02053
:102BC000856911E04FF0E0208469AC420CD0AC4242
:102BD00002D2281B064403E0A9EB04002844064463
:102BE0002546464500D300E0ECE700BFFFF79CFF19
:102BF000BDE8F08770B504460F480078A0B11148D1
:102C0000007888B90E480088844206DB0C480088AA
:102C100094FBF0F52846FFF78BFF0948008894FBEA
:102C2000F0F100FB114084B24FF47A7104FB01F023
:102C3000FFF7B6FF70BD0000F20000207C0000200E
:102C40007E000020E5000020014600BF704700BF65
:102C50004E4A128802F04002002AF9D0C2B24B4B11
:102C60009A80704710B588B0044601210846FEF7E7
:102C700087FD01211020FEF7DDFD072209214448D0
:102C8000FEF76BFB07220A214148FEF766FB4FF473
:102C9000C060069002208DF81C008DF81D000020F9
:102CA0008DF81E0001208DF81F0006A93848FEF798
:102CB000C9FA02940020ADF80C00ADF80E00ADF892
:102CC0001000ADF814000C20ADF8120002A92F4836
:102CD000FFF763FD01212D48FFF7E7FD012240F2D8
:102CE00025512A48FFF797FE25208DF80400032080
:102CF0008DF805008DF8060001208DF8070001A869
:102D0000FDF77DFF08B010BD10B501F0E2F840F20C
:102D100025511E48FFF7BAFE10B31C48FFF7F4FD1B
:102D2000C4B21C48008800F40040C8B919480088A3
:102D300000F4804060B10A2C03D0002015490880BF
:102D400020E01448008840F400401249088019E04F
:102D50000D2C06D10F48008840F480400D490880B2
:102D600010E00C480088C0F30D000B490C540948D2
:102D70000088401C0749088008460088C72801DDF4
:102D80000020088001F0C0F810BD000000100140D4
:102D900000000240840000202414002000B589B007
:102DA00001210846FEF7ECFCC020079002208DF8B8
:102DB000200003208DF8210001208DF82200002042
:102DC0008DF8230007A93548FEF73CFA02220621B8
:102DD0003248FEF7C2FA022207213048FEF7BDFA58
:102DE00001210220FEF715FD2D48FEF71DFE04A867
:102DF000FEF7FBFE0020ADF81000ADF812004FF614
:102E0000FF7005900020ADF8180004A92448FEF7D3
:102E1000B8FE00231A4603212148FFF726FC01A82B
:102E2000FFF7BDFA0A20ADF80C0001A91C48FFF716
:102E30007FFA00211A48FEF7EDFE01211848FEF73F
:102E400029FF09B000BD16492431096808B270474E
:102E50000146022904D003290BD0042919D111E01D
:102E60004FF08042526A10B200224FF080435A6203
:102E700011E00B4A2432126810B20022084B2433AE
:102E80001A6008E0074A126810B20022054B1A6067
:102E900001E0002000BF00BF7047000000000240BA
:102EA00000040040240800401CB501210220FEF768
:102EB00067FC4FF44050009001208DF80400002082
:102EC0008DF8060003208DF8050001208DF807001D
:102ED00069460448FEF7B6F94FF440510148FEF741
:102EE0002DFA1CBD0004024000B58DB0012108463A
:102EF000FEF746FC01210802FEF79CFC0121480276
:102F0000FEF798FC30200B9003208DF83000002055
:102F10008DF833000BA94B48FEF794F90121080204
:102F2000FEF7DDFC01214802FEF7D9FC00214FF439
:102F30008070FEF7D4FC00214FF40070FEF7CFFC48
:102F4000002007900A9009904FF48030089007A85D
:102F5000FDF7FAFE002001908DF808008DF80900B9
:102F60000390059001208DF8180001A93648FDF75F
:102F7000BCFE01A93548FDF7B8FE01213248FDF736
:102F8000FAFE01213148FDF7F6FE0DB000BD10B587
:102F900004460723012221462B48FDF72CFF2A482F
:102FA000FDF785FF00BF02212748FEF7A1F80028A2
:102FB000F9D02548FDF7B7FF10BD10B5044607232B
:102FC000012221462148FDF716FF2048FDF76FFF3B
:102FD00000BF02211D48FEF78BF80028F9D01B48DE
:102FE000FDF7A1FF10BD2DE9F04107460C46002575
:102FF000002608E03846FFF7CAFF05440520FFF722
:10300000F9FD701CC6B2A642F4DBB5FBF4F080B249
:10301000BDE8F0812DE9F04107460C460025002669
:1030200008E03846FFF7C9FF05440520FFF7E2FD39
:10303000701CC6B2A642F4DBB5FBF4F080B2BDE86A
:10304000F08100000000024000200140002101400A
:1030500010B540F225516748FFF718FD80B165486B
:10306000FFF752FCC4B264480078402808DA63488D
:1030700061490978445460480078401C5E490870F2
:1030800010BD10B588B0044601210846FEF778FB54
:1030900001210220FEF774FB01214804FEF7B9FB71
:1030A000072202215648FEF758F907220321544807
:1030B000FEF753F90C20069002208DF81C00032027
:1030C0008DF81D0000208DF81E0001208DF81F00D6
:1030D00006A94B48FEF7B6F84FF480700690012021
:1030E0008DF81C0003208DF81D0000208DF81E00B7
:1030F00001208DF81F0006A94248FEF7A3F80294AC
:103100000020ADF80C00ADF80E00ADF81000ADF8E1
:1031100014000C20ADF8120002A93648FFF73DFB61
:1031200001213448FFF7C1FB40213248FFF7A5FCDD
:10313000012240F225512F48FFF76DFC26208DF823
:10314000040003208DF805008DF8060001208DF89D
:10315000070001A8FDF753FD00202B49086008B0C7
:1031600010BD70B505460E460120274908600024B1
:103170000FE0295D1F48FFF7C3FB00BF40211D483A
:10318000FFF76EFC0028F9D01420FFF709FD601C42
:10319000C4B2B442EDDB00BF40211648FFF760FC2B
:1031A0000028F9D00020144908701749086070BD44
:1031B0002DE9F04107460D460F480678002400200F
:1031C00028700A20FFF716FD0B48007886420FD1C1
:1031D00076B100BF04E00948005D3855601CC4B2F8
:1031E000B442F8DB044800782870002002490870D7
:1031F000BDE8F0810044004086000020EC1400206F
:103200000000024000040240A08240421CB501219F
:103210001020FEF7B5FA6020009001208DF8040020
:1032200003208DF8050000208DF8060001208DF8A0
:1032300007006946FD48FEF705F82021FB48FEF728
:103240007DF84021F948FEF77BF81CBD30B58BB006
:1032500004460D4601210220FEF7ECFA012104206C
:10326000FEF78EFA8020099002208DF828000320B6
:103270008DF8290000208DF82A0002208DF82B00FF
:1032800009A9EB48FDF7DEFF03220721E848FEF716
:1032900064F806A8FEF7A9FCADF818500020ADF8B8
:1032A0001A000794ADF8200006A9E248FEF769FC71
:1032B0000121E048FFF72EF90121DE48FEF7C0FCAE
:1032C0000821DC48FEF7D4FC7020ADF80400002093
:1032D000ADF810000120ADF806000020ADF80800A0
:1032E0006010039001A9D348FEF719FD0821D148C9
:1032F000FEF772FE0121CF48FEF7AEFC0122114617
:10330000CC48FFF7DFF82C208DF8000001208DF865
:1033100001008DF802008DF803006846FDF76FFC90
:103320000121C448FFF7F6F80121C248FEF7B2FCBC
:103330000BB030BD10B504466CB14021BB48FDF761
:10334000FDFFBD48007820F00400BB490870BB4871
:1033500003F070F90DE04021B448FDF7F1FFB648E5
:10336000007820F00400001DB3490870B44803F051
:1033700061F910BD2DE9F04704460E4615461F467B
:10338000B0480660B0480560002C05DA2021A74847
:10339000FDF7D6FF644203E02021A448FDF7CEFFED
:1033A000012C21D1A01EA94948610846007820F0CF
:1033B0000700801C0870142048609F48007820F0A7
:1033C0000100401C9C490870A04841689948FEF7DC
:1033D00023FC9E48406841089648FEF7C2FD012143
:1033E0009448FEF757FC71E0002C6FD09848B0FB72
:1033F000F7F0401E954908614CF24F304860A7F144
:10340000140090FBF6F000F10109B9F1000F01D1B1
:103410004FF0010904FB05F07119B0FBF1F0A0F1C8
:103420000108B8F1000F01D14FF00108C84504D8D8
:10343000A8EB04008549C86007E0A7F1140090FBE1
:10344000F5F0401C40428149C8608048C06818B906
:103450004FF0FF307D49C8607C48C06820447B49FC
:10346000886008464068096988420AD87748006938
:10347000764948600846007820F00700C01C0870B4
:1034800006E07248007820F00700401C6F49087081
:1034900000206E49486188616748007820F001008B
:1034A000401C65490870694841686248FEF7B4FBF2
:1034B0006648406841085F48FEF753FD00215D48BB
:1034C000FEF7A8FB01215B48FEF7E4FBBDE8F087AF
:1034D000012805D15F490968491E5E4A116004E070
:1034E0005C490968491C5B4A1160704710B50121AD
:1034F0005048FEF7FEFF002876D001214D48FFF727
:1035000009F8524841684B48FEF786FB4F4840682F
:1035100041084848FEF725FD00214648FEF77AFBA2
:1035200045480078C0F3800028B94848007820F06A
:103530000700464908704548007800F0070030B1A0
:1035400001281AD0022870D0032815D15CE0002091
:103550004149086037482030008820F480503549C0
:103560002031088000213348FEF794FB3248007870
:1035700020F0010030490870D0E001212D48FEF70D
:10358000AAFF01212B48FEF776FF01212948FEF70B
:1035900081FB2E490978C1F3C000FFF799FF2E483F
:1035A0000068401C2C49086028484069401C274995
:1035B0004861084640692349096848431430244952
:1035C000B1FBF0F0441E2148806823490968884215
:1035D0000BD81E48C0681D4948610846007820F095
:1035E0000700801C08700EE09BE018480069A042AC
:1035F00009D31A48046015480469007820F00700D0
:10360000C01C1249087089E001210A48FEF763FFD7
:1036100001210848FEF72FFF01210648FEF73AFB7B
:103620000A490978C1F3C0001AE032E000100240F4
:103630000008024000040140A0000020486C00087F
:10364000906C0008A4000020A80000202C15002089
:1036500040420F009C000020B0000020AC00002081
:10366000FFF736FF2F480068401C2E4908602E489F
:1036700004698068096888420AD82B48C0682A49CA
:10368000486108460469007820F00700801C087033
:1036900044E001212548FEF71EFF01212348FEF7E3
:1036A000EAFE01212148FEF7F5FA1F490978C1F326
:1036B000C000FFF70DFF1B480068401C1949086057
:1036C00019484069401C1849486108468069401CF7
:1036D000886108460069401C154991FBF0F01249C9
:1036E0008969144A126802FB11001149B1FBF0F01C
:1036F000441E4CF24F30844200D304460A484069CD
:1037000000280ADB0848007820F007000649087006
:103710000020094908600749086000BF00BF02484F
:10372000446010BDB00000202C15002000040140B2
:1037300040420F00A8000020A40000201CB5012179
:103740001020FEF71DF81820009001208DF80400CD
:1037500003208DF8050000208DF8060001208DF86B
:1037600007006946FE48FDF76DFD0821FC48FDF79E
:10377000E5FD1021FA48FDF7E3FD1CBD30B58BB027
:1037800004460D4601210846FEF754F80121102099
:10379000FDF7F6FF4FF40060099002208DF8280035
:1037A00003208DF8290000208DF82A0002208DF8D2
:1037B0002B0009A9EA48FDF745FD01220B21E84845
:1037C000FDF7CBFD06A8FEF710FAADF81850002063
:1037D000ADF81A000794ADF8200006A9E148FEF7FD
:1037E000D0F90121DF48FEF795FE0121DD48FEF703
:1037F00027FA0821DB48FEF73BFA7020ADF80400F9
:103800000020ADF810000120ADF806000020ADF852
:1038100008006010039001A9D248FEF780FA082141
:10382000D048FEF7D9FB0121CE48FEF715FA012258
:103830001146CC48FEF746FE19208DF80000012005
:103840008DF801008DF802008DF803006846FDF741
:10385000D6F90121C348FEF75DFE0121C148FEF7FC
:1038600019FA0BB030BD10B5044654B11021BC4854
:10387000FDF764FDBC48007820F00400BA490870E8
:103880000AE01021B648FDF75BFDB748007820F04C
:103890000400001DB449087010BD2DE9F04704462E
:1038A0000E4615461F46B1480660B1480560002C1B
:1038B00005DA0821AA48FDF743FD644203E0082128
:1038C000A748FDF73BFD012C21D1A01EA949486165
:1038D0000846007820F00700801C0870142048601B
:1038E000A148007820F00100401C9F490870A148C1
:1038F00041689C48FEF790F99E4840684108994805
:10390000FEF72FFB01219748FEF7C4F971E0002C68
:103910006FD09948B0FBF7F0401E964908614CF211
:103920004F304860A7F1140090FBF6F000F1010958
:10393000B9F1000F01D14FF0010904FB05F0711935
:10394000B0FBF1F0A0F10108B8F1000F01D14FF088
:103950000108C84504D8A8EB04008649C86007E000
:10396000A7F1140090FBF5F0401C40428149C8606B
:103970008048C06818B94FF0FF307E49C8607D4864
:10398000C06820447B4988600846406809698842CD
:103990000AD878480069774948600846007820F0DE
:1039A0000700C01C087006E07248007820F007008D
:1039B000401C7049087000206E49486188616A485F
:1039C000007820F00100401C674908706948416890
:1039D0006448FEF721F96748406841086148FEF7EE
:1039E000C0FA00215F48FEF715F901215D48FEF796
:1039F00051F9BDE8F087012805D160490968491EE1
:103A00005E4A116004E05D490968491C5B4A116027
:103A1000704710B501215348FEF76BFD002874D0A4
:103A200001215048FEF776FD524841684D48FEF7A7
:103A3000F3F85048406841084A48FEF792FA0021DE
:103A40004848FEF7E7F848480078C0F3800028B9F6
:103A50004848007820F0070046490870454800783B
:103A600000F0070030B1012818D0022876D00328D2
:103A700013D15AE00020424908603A48008C20F4F3
:103A800080503849088400213648FEF703F936484B
:103A9000007820F0010034490870CBE00121314862
:103AA000FEF719FD01212F48FEF7E5FC01212D4805
:103AB000FEF7F0F82F490978C1F3C000FFF79BFF2C
:103AC0002F480068401C2E4908602A484069401C65
:103AD0002849486108464069244909684843143028
:103AE0002549B1FBF0F0441E22488068244909684A
:103AF00088420BD81F48C0681E49486108460078B4
:103B000020F00700801C08700EE096E0194800695C
:103B1000A04209D31B48046016480469007820F0CD
:103B20000700C01C1349087084E001210D48FEF70E
:103B3000D2FC01210B48FEF79EFC01210948FEF74B
:103B4000A9F80C490978C1F3C000FFF754FF0C48ED
:103B50000068401C0A490860064815E025E000009E
:103B60000010024000000140B8000020BC0000200E
:103B7000C00000204815002040420F00B400002083
:103B8000C8000020C40000200469806809688842D9
:103B90000AD82A48C068294948610846046900785B
:103BA00020F00700801C087044E001212448FEF743
:103BB00092FC01212248FEF75EFC01212048FEF71D
:103BC00069F81E490978C1F3C000FFF714FF1D48CA
:103BD0000068401C1B49086018484069401C174990
:103BE000486108468069401C886108460069401C9D
:103BF000154991FBF0F011498969144A126802FBDA
:103C000011001149B1FBF0F0441E4CF24F308442D8
:103C100000D304460948406900280ADB07480078B9
:103C200020F007000549087000200949086007498D
:103C3000086000BF00BF0148446010BD4815002067
:103C400000000140C800002040420F00C0000020DA
:103C5000BC0000207CB5002514E06946284602F02F
:103C6000BFF9064666B9F74850F8254044B1012C23
:103C700006D0D4E9020100EB810060640198A064E1
:103C8000681CC5B23F2DE8D97CBD002400BF02E00E
:103C9000282002F0AFFAEC4800780028F8D0EB4872
:103CA00000686421B0FBF1F0E8490860084600684C
:103CB00028B90020E6490870FF2002F0D3F900BFC0
:103CC00002F052FC0446E3480068E3490860002023
:103CD000E0490860204602F04BFCDF480068DB4901
:103CE0000968B0FBF1F0C0F16400D949087002F036
:103CF0005EFBFFF7AFFF142002F07CFAE0E700B5AF
:103D000087B0032000218022D44BCDE90132CDE9D8
:103D100003104FF6FE703E23D14A0090AFF295009B
:103D200001F077FF06AACFA13E2002F0DBF807B032
:103D300000BD002400BF00BF02F016FC0446C548C9
:103D40000068401CC3490860204602F011FC02F0E4
:103D50002DFBF1E700B587B0032000218022C54B81
:103D6000CDE90132CDE903104FF6FF703F23C24A7F
:103D70000090AFF2410001F04CFF06AABFA13F2026
:103D800002F0B0F807B000BD04E0002200F8012BFB
:103D90004A1E91B20029F8D1704770B5C821BB48BE
:103DA000FFF7F2FF00230FE0581C85B203EB8300FE
:103DB000B64901EB800405EB850001EB800600208D
:103DC00020706660581C83B2092BEDD303EB83008F
:103DD000AE4901EB80040020207060600846AC49C9
:103DE000086070BD70B54FF47C71AA48FFF7CCFF36
:103DF0004FF480719348FFF7C7FF002413E0601C65
:103E0000C5B2C4EBC40000EB4000A24901EB800343
:103E1000C5EBC50000EB400001EB80065E619EA093
:103E2000D864601CC4B20B2CE9D3C4EBC40000EB13
:103E30004000984901EB80030020586196A0D864A7
:103E400000209649086093489549086070BD00219C
:103E5000944A1170002004E00021934A1154411C3F
:103E6000C8B20828F8D30021904A1170904A117006
:103E7000904A1160904A1160704700208F49086095
:103E80008F4908708F4908708F4908708F490870F2
:103E90008F4908606F4908606F4908606B49086086
:103EA00069490870704710B502F07CFAFFF7E5FF2A
:103EB000FFF7CDFFFFF796FFFFF76FFF00F0EAFE79
:103EC00001F0C7FBFFF746FFFFF719FF02F06BFA9F
:103ED00010BD7E480078012808D179480078FF2875
:103EE00004D277480078401C7549087070477949BA
:103EF0006C4A1278885C6C49095C764A515C01EB2B
:103F0000C0016B4A1170704710B500246F480078EB
:103F1000012830D102F028FB04466948007820B11E
:103F200067480078401E6649087065480078F8B90F
:103F300064480078E0B9FFF7DAFF42485C49097845
:103F400050F821005B4908605948007857490978C2
:103F500088420DD057480068806B401C554909685D
:103F600088635B480068401C5949086002F01CFBEC
:103F7000204602F0FDFA10BD10B500245348007829
:103F8000012811D102F0F0FA04464D48007840B9FA
:103F90004C480078FF2804D24A480078401C494920
:103FA0000870204602F0E4FA10BD10B5002402F0BB
:103FB000DBFA044642480078F8B942480078E0B994
:103FC000FFF795FF1F483A49097850F82100394911
:103FD0000860374800783549097888420DD035485F
:103FE0000068806B401C3349096888633848006862
:103FF000401C3749086002F0D0FA204602F0B8FAB7
:1040000010BD10B500243148007801286FD102F0AE
:10401000ABFA04462B48007880B12A480078401E4D
:10402000284908700846007848B92548007838B90A
:10403000204602F09DFAFFF7B8FF58E054E04FE049
:104040004AE000007C1A0020E4000020DC00002090
:10405000D8000020F4000020E00000207C160020A2
:104060007818002075432F4F532D49492053746110
:10407000740000007C180020781A002075432F4F30
:10408000532D49492049646C6500000064150020E7
:10409000D00000207C1B00203F0000000401002015
:1040A000FC000020E9000020EA000020E7000020DA
:1040B000E800002000010020F8000020100100208E
:1040C000E5000020E6000020F3000020F2000020C0
:1040D000CC000020466B0008204602F049FA06E0BA
:1040E000204602F045FA02E0204602F041FA10BDF7
:1040F00010B5EB48007890B9FFF7F9FEE948007871
:10410000E9490870E948E749097850F82100E84989
:10411000086008460068E749086002F02CFA10BD04
:1041200010B50024022002F065F802F01DFA0446E2
:104130000020E1490860204602F01AFA142002F03B
:1041400059F802F011FA0446DB480068DB490860C0
:104150000120DB490870204602F00AFA10BD70B554
:10416000002602F0FCF902F0FFF90646D548006887
:10417000401CD4490860304602F0FAF9C84800787B
:10418000012853D1D048007820B1012804D002285A
:1041900009D103E001250BE0002509E001250120FC
:1041A000C949087004E001250020C749087000BF14
:1041B00000BF05B970BDC548046833E002F0D4F90A
:1041C0000646E06A50B3E06A401EE062E06A28BB3F
:1041D00094F8300000F0370040B114F8300F00F0D0
:1041E000C800207001206070303C02E0002084F89C
:1041F000310094F8300000F0080078B93434A07829
:10420000B34909780843B24908702078B149085C7D
:104210006178084314F83419AE4A50546469304642
:1042200002F0A6F994F832003F28C7D100BFC1E7D9
:1042300040F223107047704710B590F8342001F118
:104240000B039B5C90F83540A34301F10B04A3548E
:1042500023469B5C23B98B7A90F83640A3438B723C
:1042600010BD2DE9F04F05460F4690469946A87AB5
:1042700099490E5C05F10B00805D11F800B00BEB65
:10428000C60000F0FF0A894850F82A400020203478
:10429000E0602760207C20EA0800207484F81190F8
:1042A000207C203C00F0080068B994F8360088496A
:1042B00009780843864908708648805D94F835106F
:1042C00008438449885529462046FFF7B5FF5046E4
:1042D000BDE8F08F10B5774A1268D061754A126850
:1042E00092F8343000F10B02D25C724B1B6893F8E9
:1042F00035301A436F4B1B6893F8344000F10B03C1
:104300001A55827A6B4B1B6893F836301A438272C7
:10431000684A126892F834106E4A525C654B1B680A
:1043200093F835309A436B4B5A541A46525C42B953
:10433000604A126892F83630654A12789A43644BA4
:104340001A7010BD014600228A72002005E0002389
:1043500001F10B021354421CD0B20828F7D3704766
:1043600005E011F8013B00F8013B531E9AB2002A08
:10437000F7D170470146002002E0491C421CD0B230
:104380000A78002AF9D170472DE9F84F05460F4603
:1043900090469946DDE90AAB0020009002F0E4F86F
:1043A00000904E480468002C75D0183454F8040C62
:1043B0004A490860009802F0DBF844F8187CA576BA
:1043C000002020766076606144F814BC44F80CACA0
:1043D00044F8108C0C9824F8080C24F8069C002053
:1043E000E077E810207705F00700E076217F0120D4
:1043F0008840A077E17E01208840607700206060DF
:10440000E060A0602062A0626062E0622063AFF2C0
:1044100078306063183C002606E0002104F150006B
:1044200040F82610701CC6B2002EF6D0204602F0CE
:1044300095F8204601F0B8FF02F096F800901B486E
:1044400040F825402148006860610020A0611F48B5
:10445000006810B11D48006884611C480460343451
:10446000A0781B4909780843194908702078194930
:10447000085C6178084314F83419164A50541848F7
:104480000078401C16490870009802F071F800206E
:10449000BDE8F88FFFE7009802F06AF84220F7E7DE
:1044A000F2000020E8000020E70000207C1A002035
:1044B00000010020F8000020F4000020DC000020B3
:1044C000E400002010010020080100200401002069
:1044D000E9000020EA000020466B0008FC000020F4
:1044E000F30000202DE9F05F04460F4691461E467A
:1044F0004FF0000B2078052804D0012030700020F8
:10450000BDE8F09F09F0800ABAF1000F04D029F04D
:1045100080094FF0010801E04FF0000800203070E2
:1045200002F022F88346B9F1000F2CD0B9F1010F47
:104530003BD0B9F1020F03D0B9F1030F46D111E01E
:10454000208900EA0705BD4206D1B8F1010F05D167
:104550002089A843208101E070203070584602F085
:1045600007F83AE0208900EA070535B1B8F1010FF4
:1045700005D12089A843208101E070203070584681
:1045800001F0F6FF29E0208927EA0005BD4206D1A7
:10459000B8F1010F05D120892843208101E0702066
:1045A0003070584601F0E4FF17E0208927EA000543
:1045B00035B1B8F1010F05D120892843208101E0F0
:1045C00070203070584601F0D3FF06E0584601F0E5
:1045D000CFFF00256F20307000BF00BF28468FE757
:1045E0002DE9F04106460D460027FA48007820B133
:1045F000102028700020BDE8F08101F0B5FF0746CB
:10460000F548046884B100684068F34908600520F3
:104610002070268100206060F0A0E060384601F044
:10462000A7FF0020287004E0384601F0A1FF7220A7
:1046300028702046DFE730B501464A6808682AB985
:10464000CC68606028B10025456002E0106000B1D0
:1046500042608B6800255D6230BDF0B506460F46AE
:10466000B4680020283460602780207A00F0DF00E2
:10467000207200206072207A283C88B93434A078F7
:10468000D74909780843D64908702078D549085C8D
:104690006178084314F83419D24A5054012500E0D7
:1046A00000253046FFF7C7FF2846F0BD2DE9F0474B
:1046B0000446894615464FF0000AC648007820B1E6
:1046C0000F2028702046BDE8F0872078052803D009
:1046D000012028702046F6E701F046FF8246606818
:1046E00008B1012700E00027B9F1000F03D0B9F1AC
:1046F000010F3CD119E08FB9B8A0E0600020207014
:10470000B5480068606000202081B34804605046CE
:1047100001F02EFF00202870002605E0504601F031
:1047200027FF49202870264628E0D4F8048005E0B9
:1047300000214046FFF791FFD8F80080B8F1000F44
:10474000F6D1A6A0E06000202070A3480068606059
:1047500000202081A0480460504601F009FF012F8D
:1047600001D1FFF722FC00202870002606E0504609
:1047700001F0FEFE07202870264600BF00BF30462D
:10478000A1E72DE9F04105460E4614460027914861
:10479000007820B1112020700020BDE8F08101F0E8
:1047A000E3FE07462878052806D0384601F0E0FEEB
:1047B000012020700020F0E7E86830603068FFF7E3
:1047C000D9FD8046384601F0D3FE002020704046D7
:1047D000E3E72DE9F04105460E46144600277D48E3
:1047E000007818B112202070BDE8F08101F0BCFE05
:1047F00007462878052805D0384601F0B9FE012083
:104800002070F1E7EE60384601F0B2FE0020207023
:1048100000BFE9E7F0B51446059E734F3F6897F86F
:10482000307047F02007DFF8C0C1DCF800C08CF81A
:1048300030700027DFF8B0C1DCF800C08CF83170B0
:10484000694F3F68FE62684F3F6879620C828B74E3
:10485000654F3F688F6047680F6000274F60C860F2
:10486000456805B1696041605F4F3F6897F8342043
:104870005C4FBF5CDFF870C1DCF800C09CF835C04D
:1048800027EA0C07DFF85CC10CF802706746BF5CD2
:104890005FB9554F3F6897F836C0514F3F7827EAC8
:1048A0000C07DFF83CC18CF80070F0BD2DE9F04F2B
:1048B00089B005460F4691469A46129E0020029006
:1048C0004448007828B102203070002009B0BDE8CB
:1048D000F08F4648007818B10D2030700020F5E7C1
:1048E0002878052803D0012030700020EEE709F079
:1048F000800BBBF1000F04D009F07F094FF00108D5
:1049000001E04FF0000801F02FFE0290B9F1000F16
:104910004AD0B9F1010F78D0B9F1020F03D0B9F143
:10492000030F71D120E0288900EA0704BC420FD1AF
:10493000B8F1010F02D12889A04328812A480068D4
:104940000485029801F014FE002030702046BDE777
:104950004B463A4604A92846CDF800A0FFF75AFF77
:10496000029801F005FE78E0288900EA07047CB18E
:10497000B8F1010F02D12889A04328811A480068A4
:104980000485029801F0F4FD0020307020469DE778
:104990004B463A4604A92846CDF800A0FFF73AFF57
:1049A000029801F0E5FD58E0288927EA0004BC429E
:1049B0001ED1B8F1010F02D12889204328810A486D
:1049C00000680485029801F0D3FD00203070204675
:1049D0007CE71AE0E5000020D40000203F00000042
:1049E000E9000020EA000020F8000020E600002096
:1049F0004B463A4604A92846CDF800A0FFF70AFF27
:104A0000029801F0B5FD28E01FE0288927EA00049C
:104A10007CB1B8F1010F02D1288920432881B14827
:104A200000680485029801F0A3FD00203070204644
:104A30004CE74B463A4604A92846CDF800A0FFF7BC
:104A4000E9FE029801F094FD07E0029801F090FD64
:104A500000246F203070204638E700BFFFF7A5FA2A
:104A600001F082FD02909F48006890F8310020B369
:104A70009C48006890F8310003900020994909682B
:104A800081F8310004A8FFF7D6FD00209549096898
:104A900081F83000029801F06BFD00240398012892
:104AA00005D0022802D10E20307003E000BF0A209A
:104AB000307000BF00BF204608E78A480068048DB8
:104AC000B8F1010F1ED1B9F1000F0ED0B9F1010FED
:104AD0000CD0B9F1020F03D0B9F1030F0AD100E0F5
:104AE00000BF2889A04328810BE000BF288920430C
:104AF000288106E0029801F03BFD6F203070002015
:104B0000E4E600BF029801F033FD0020307020463B
:104B1000DCE670B5002501F027FD05467148006808
:104B2000048D284601F024FD204670BD2DE9FC5F70
:104B30000446894692461E460020009020780528AB
:104B400004D0012030700020BDE8FC9F01F00CFD76
:104B50000090BAF1000F03D0BAF1010F0AD104E0BE
:104B6000208920EA090020810BE0208940EA090021
:104B7000208106E0009801F0FBFC712030700020DD
:104B8000E2E700BF4FF0000B656855E0A87C40B33A
:104B9000012838D0022802D0032844D111E020890E
:104BA000298A00EA0107288AB84209D139462846ED
:104BB000FFF753FD8046B8F1010F01D14FF0010B13
:104BC00038E02089298A00EA01074FB13946284692
:104BD000FFF743FD8046B8F1010F01D14FF0010B03
:104BE00028E0288A218920EA0107288AB84209D1C9
:104BF00039462846FFF731FD8046B8F1010F01D153
:104C00004FF0010B16E0288A218920EA01074FB1F5
:104C100039462846FFF721FD8046B8F1010F01D142
:104C20004FF0010B06E0009801F0A2FC6F203070FD
:104C3000002089E700BF2D68002DA7D1009801F062
:104C400097FCBBF1010F01D1FFF7AFF901F08CFC2C
:104C5000009020890190009801F08AFC00203070BB
:104C6000019871E72DE9F04104460D4600272078B0
:104C7000052804D0012028700020BDE8F08101F053
:104C800073FC07462689384601F072FC0020287024
:104C90003046F2E72DE9F04150211348FFF774F850
:104CA00000250EE0681C86B20F4800EB051400EBEF
:104CB0000617002020706760AFF2E020E060681CFB
:104CC00085B2042DEED3084800EB051400202070B7
:104CD0006060AFF2F820E060034804490860BDE876
:104CE000F0810000F80000202C160020D4000020E5
:104CF00070B5044600262078012801D0002070BD40
:104D000001F032FC0646656800206060304601F024
:104D10002FFC2846F3E770B505460026E3480078E7
:104D200008B1002070BD01F01FFC0646E048046891
:104D3000006820B1DE4800684068DD490860304600
:104D400001F016FC3CB1012020700020208165603C
:104D50002046FFF7F7FA2046E4E72DE9F04704463E
:104D6000884615464FF000092078012804D001201C
:104D700028702046BDE8F087CC48007818B10F2095
:104D800028702046F6E701F0EFFB8146A07A08B1D3
:104D9000012700E00027B8F1000F03D0B8F1010FA0
:104DA00035D117E07FB900202070C14800686060ED
:104DB00000202081BE480460484601F0D9FB002055
:104DC0002870002605E0484601F0D2FB49202870F3
:104DD000264623E005E00023022219462046FFF77D
:104DE00040FAA07A0028F6D12070B14800686060CF
:104DF00000202081AE480460484601F0B9FB012F35
:104E000001D1FFF7D2F800202870002606E04846BE
:104E100001F0AEFB07202870264600BF00BF3046D9
:104E2000A8E72DE9F04105460F4614464FF000086B
:104E30002878012804D0012020700020BDE8F081EE
:104E40009A48007818B1022020700020F6E79948AF
:104E5000007818B10D2020700020EFE701F084FBEE
:104E600080466E6846B100206860404601F080FBD5
:104E7000002020703046E1E78F48006890F830004D
:104E800040F002008C49096881F8300000208A490E
:104E9000096881F8310088480068C7622846FFF732
:104EA00019FA404601F064FBFFF77FF801F05CFB64
:104EB00080468148006890F8310020B101280DD06B
:104EC00002280AD105E07C480068066A00202070AC
:104ED0000DE000260E20207009E000BF294676482C
:104EE0000068FFF7A9F900260A20207000BF00BF64
:104EF00000207149096881F830006F49096881F81C
:104F000031006D490968C8616B490968086240460B
:104F100001F02EFB304691E72DE9F04104460F46A3
:104F200015464FF000082078012804D00120287091
:104F30000020BDE8F08101F017FB8046A07A20B385
:104F400000267FB1012F0CD107E002231A46002171
:104F50002046FFF786F9701CC6B2A07A0028F4D16B
:104F600009E000BF02231A4600212046FFF779F925
:104F7000701CC6B200BF00BF404601F0F9FAFFF74F
:104F800014F80E2028703046D3E7404601F0F0FABE
:104F90000020287000BFCCE770B504460D460026FF
:104FA0002078012801D0012070BD01F0DDFA06460D
:104FB000A07A60B10023022229462046FFF751F96A
:104FC000304601F0D5FAFEF7F0FF0020ECE760680C
:104FD00020B1304601F0CCFA1420E5E76560304698
:104FE00001F0C6FA0020DFE72DE9F04104460E4645
:104FF000154600272078012802D00120BDE8F08165
:1050000001F0B2FA0746A07AE8B105F0010050B10C
:1050100005E00023022231462046FFF722F9A07A5C
:105020000028F6D105E00023022231462046FFF792
:1050300018F9384601F09CFA05F0040008B9FEF7AB
:10504000B4FF0020DAE7606820B1384601F090FA3A
:105050001420D3E76660384601F08AFA0020CDE7D5
:105060002DE9F04704460D464FF00009207801284D
:1050700002D00120BDE8F08701F076FA8146A07ADF
:10508000287304F10B0705F10408002605E017F862
:10509000010B08F8010B701CC6B2082EF7D360682C
:1050A0002860484601F064FA0020E3E7E5000020AC
:1050B000D0000020E6000020F80000202DE9F0419B
:1050C00006460D464FF000083078022804D0012033
:1050D00028700020BDE8F08101F046FA804674682F
:1050E000E08A78B12169081D20610F68E08A401EBE
:1050F000E082A1682069884201D1606820610020B7
:10510000287002E01F2028700027404601F030FA86
:105110003846DFE72DE9F04106460F464FF000081C
:10512000F748007810B10020BDE8F08101F01CFACA
:105130008046F4480568006820B1F248006840687D
:10514000F0490860404601F013FA3DB301F00CFA53
:105150008046ED480468C4B100680068EA49086008
:10516000404601F005FA666006EB8700A060E66045
:105170002661A7820020E08202202870002028817A
:105180006C602846FFF7DEF808E0DE4800686860DB
:10519000DC480560404601F0EBF900252846C3E7EE
:1051A0002DE9F0470446894615464FF0000A20785D
:1051B000022804D0012028702046BDE8F087D0489E
:1051C000007818B10F2028702046F6E701F0CCF9DE
:1051D0008246A07A10B14FF0010801E04FF00008BC
:1051E000B9F1000F03D0B9F1010F45D11FE0B8F1BB
:1051F000000F15D16668C44800683060C248066078
:1052000000202070BF480068606000202081BD48F9
:105210000460504601F0ACF900202870002705E03A
:10522000504601F0A5F94920287027462BE005E0FB
:105230000023042219462046FFF713F8A07A00281D
:10524000F6D16668B04800683060AF48066000205C
:105250002070AC480068606000202081A94804608C
:10526000504601F085F9B8F1010F01D1FEF79DFE1E
:1052700000202870002706E0504601F079F9072049
:105280002870274600BF00BF384696E770B5054630
:10529000002601F069F906466C686068E0606068A5
:1052A00020610020E082304601F062F9002070BDEC
:1052B0002DE9F0470746884615464FF00009387833
:1052C000022804D0012028700020BDE8F0878C4817
:1052D000007818B1022028700020F6E78B4800788B
:1052E00018B10D2028700020EFE701F03DF981464C
:1052F0007C68E08A98B12169081D20610E68E08A07
:10530000401EE082A1682069884201D16068206166
:10531000484601F02DF9002028703046D5E77C483A
:10532000006890F8300040F004007949096881F87D
:10533000300000207649096881F83100744800681F
:10534000C0F82C803846FEF7C5FF484601F010F93A
:10535000FEF72BFE01F008F981466D48006890F8D1
:10536000310020B101280DD002280AD105E068489B
:105370000068066A002028700DE000260E202870C4
:1053800009E000BF394662480068FEF755FF002675
:105390000A20287000BF00BF00205D49096881F81D
:1053A00030005B49096881F8310059490968C861D2
:1053B000574909680862484601F0DAF8304684E740
:1053C0002DE9F04104460F4615464FF000082078BD
:1053D000022804D0012028700020BDE8F08101F0EF
:1053E000C3F88046A07A20B300267FB1012F0CD1EC
:1053F00007E00223042200212046FEF732FF701C42
:10540000C6B2A07A0028F4D109E000BF022304222A
:1054100000212046FEF725FF701CC6B200BF00BF6A
:10542000404601F0A5F8FEF7C0FD0E20287030467A
:10543000D3E7404601F09CF80020287000BFCCE77D
:105440002DE9F04105460E4600272878022802D0B3
:105450000120BDE8F08101F087F80746A87A60B125
:105460000023042231462846FEF7FBFE384601F0B1
:105470007FF8FEF79AFD0020EBE76C68E08AA18ACE
:10548000884204DB384601F073F81E20E1E7E1684A
:10549000081DE0600E60E08A401CE082D4E9021042
:1054A000884201D16068E060384601F061F8002070
:1054B000CFE72DE9F04105460E460027287802285F
:1054C00002D00120BDE8F08101F04EF80746A87A2D
:1054D00060B10023042231462846FEF7C2FE38465A
:1054E00001F046F8FEF761FD0020EBE76C68E08A0A
:1054F000A18A88420EDB384601F03AF81E20E1E727
:10550000E5000020D00000200C010020E600002073
:10551000F800002061682069884201D1A0682061FC
:105520002069001F206120690660E08A401CE0823B
:10553000384601F01DF80020C4E72DE9F04105468A
:105540000F4616464FF000082878022802D00120A6
:10555000BDE8F08101F008F88046A87AE8B106F0CD
:10556000010050B105E00023042239462846FEF729
:1055700078FEA87A0028F6D105E0002304223946F7
:105580002846FEF76EFE404600F0F2FF06F00400EB
:1055900008B9FEF70AFD0020DAE76C68E08AA18A04
:1055A000884204DB404600F0E3FF1E20D0E706F00F
:1055B000020058B161682069884201D1A068206169
:1055C0002069001F20612069076009E0E168081D6B
:1055D000E0600F60D4E90210884201D16068E060A9
:1055E000E08A401CE082404600F0C2FF0020AFE7A6
:1055F0002DE9F04705460C464FF0000A28780228AE
:1056000002D00120BDE8F08700F0AEFF8246A87A04
:10561000207405F10B0804F10809002705E018F8CB
:10562000010B09F8010B781CC7B2082FF7D36E687D
:10563000F08A18B130690068206001E00020206025
:10564000F08AA080B08AE080504600F091FF0020F0
:10565000D8E72DE9F04178211048FEF795FB0024AA
:105660000DE0601C86B204EB44000C4901EBC00560
:1056700006EB460001EBC0072F60601C84B2042CCF
:10568000EFD304EB4400054901EBC005002028607E
:10569000084603490860BDE8F08100006C1F002047
:1056A0000C01002070B5044600262078032801D0A4
:1056B000002070BD00F058FF0646258915B12089ED
:1056C000401E2081304600F053FF2846F1E770B5B8
:1056D00005460026D248007808B1002070BD00F0D1
:1056E00043FF0646CF480468006820B1CD480068F3
:1056F0004068CC490860304600F03AFF3CB10320D6
:1057000020702581002060602046FEF71BFE2046A9
:10571000E4E72DE9F0470446884615464FF00009B6
:105720002078032804D0012028702046BDE8F087A7
:10573000BB48007818B10F2028702046F6E700F02B
:1057400013FF8146A07A08B1012700E00027B8F1D5
:10575000000F03D0B8F1010F35D117E07FB9002059
:105760002070B0480068606000202081AD4804606F
:10577000484600F0FDFE00202870002605E048465F
:1057800000F0F6FE49202870264623E005E00023BD
:10579000012219462046FEF764FDA07A0028F6D1C2
:1057A0002070A04800686060002020819D4804604F
:1057B000484600F0DDFE012F01D1FEF7F6FB002088
:1057C0002870002606E0484600F0D2FE0720287028
:1057D000264600BF00BF3046A8E72DE9F041054648
:1057E0000E46144600272878032803D00120207095
:1057F000BDE8F0818A48007810B102202070F7E7F8
:105800008948007810B10D202070F1E700F0ACFE5F
:105810000746288940B12889401E2881384600F073
:10582000A7FE00202070E3E78048006890F8300071
:1058300040F001007D49096881F8300000207B4973
:10584000096881F8310079480068C6622846FEF789
:1058500041FD384600F08CFEFEF7A7FB00F084FE09
:1058600007467248006890F8310020B1012809D03D
:10587000022806D102E0002020700BE00E202070EC
:1058800008E000BF294669480068FEF7D5FC0A20F9
:10589000207000BF00BF00206449096881F8300013
:1058A0006249096881F8310060490968C861384671
:1058B00000F05EFE00BF9BE72DE9F04104460F4675
:1058C00015464FF000082078032804D001202870E6
:1058D0000020BDE8F08100F047FE8046A07A20B3AA
:1058E00000267FB1012F0CD107E002230122002105
:1058F0002046FEF7B6FC701CC6B2A07A0028F4D190
:1059000009E000BF0223012200212046FEF7A9FC86
:10591000701CC6B200BF00BF404600F029FEFEF773
:1059200044FB0E2028703046D3E7404600F020FEAE
:105930000020287000BFCCE770B504460025207811
:10594000032801D0012070BD00F00EFE0546A07AAC
:1059500060B10023012219462046FEF782FC28464A
:1059600000F006FEFEF721FB0020ECE720894FF651
:10597000FF71884207D22089401C2081284600F010
:10598000F7FD0020DFE7284600F0F2FD3320DAE7DC
:105990002DE9F04704460D464FF000092078032812
:1059A00002D00120BDE8F08700F0DEFD8146A07A3C
:1059B000A87204F10B0705F10208002605E017F8AC
:1059C000010B08F8010B701CC6B2082EF7D3208912
:1059D0002880484600F0CCFD0020E3E72DE9F041A7
:1059E00004460E46154600272078032803D00120E0
:1059F0002870BDE8F08100F0B7FD07460020287050
:105A0000208908B1268105E0A07A08B9268101E045
:105A100049202870384600F0ABFD00BFE9E70000E0
:105A2000E5000020D0000020E6000020F800002063
:105A30002DE9FF5F814688460020009000F094FD2C
:105A40000090F94850F8280030B1009800F090FD1F
:105A5000282004B0BDE8F09FB9F1FF0F03D1F3484F
:105A6000006890F83290F04850F8294024B9009826
:105A700000F07EFD2920ECE7012C04D1009800F015
:105A800077FD4320E5E74FEAE80708F007000390B9
:105A90000120B84000F0FF0A01210398814001F085
:105AA000FF0B0020E04941F82900084640F8284053
:105AB00014F8346FA07802906078343C0190DC4890
:105AC000815D01980140D1B1D948805D0199884339
:105AD000D74988550846805D28B9D648007802998C
